:100000000C94C7010C94E4010C94E4010C94E401F9
:100010000C94E4010C94E4010C94E4010C94E401CC
:100020000C94E4010C94E4010C94E4010C94E401BC
:100030000C94E4010C94E4010C94E4010C94E401AC
:100040000C94E4010C94E4010C94E4010C94E4019C
:100050000C94E4010C94E4010C94E4010C94E4018C
:100060000C94E4010C94E4010C94E4010C94E4017C
:100070000C94E4010C94E4010C94E4010C94E4016C
:100080000C94E4010C94E4010C94E4010C94E6015A
:100090000C94E4010C94E4010C94E4010C94E4014C
:1000A0000C94E4010C94E4010C94E40100000000C1
:1000B0000000005F00000007000700147F147F1499
:1000C000242A7F2A122313086462364955225000DD
:1000D00005030000001C2241000041221C001408FE
:1000E0003E081408083E08080050300000080808C0
:1000F0000808006060000020100804023E514945D5
:100100003E00427F400042615149462141454B310A
:100110001814127F1027454545393C4A494930019A
:10012000710905033649494936064949291E0036F1
:100130003600000056360000081422410014141442
:100140001414004122140802015109063249794170
:100150003E7E1111117E7F494949363E414141227F
:100160007F4141221C7F494949417F090909013EDC
:100170004149497A7F0808087F00417F41002040BB
:10018000413F017F081422417F404040407F020CE4
:10019000027F7F0408107F3E4141413E7F090909EB
:1001A000063E4151215E7F09192946464949493198
:1001B00001017F01013F4040403F1F2040201F3F81
:1001C0004038403F63140814630708700807615102
:1001D000494543007F41410002040810200041418D
:1001E0007F0004020102044040404040000102043C
:1001F0000020545454787F484444383844444420C0
:10020000384444487F3854545418087E0901020C7D
:100210005252523E7F0804047800447D4000204042
:10022000443D007F1028440000417F40007C0418BA
:1002300004787C0804047838444444387C1414144A
:1002400008081414187C7C080404084854545420EA
:10025000043F4440203C4040207C1C2040201C3C6B
:100260004030403C44281028440C5050503C4464DA
:10027000544C44000836410000007F000000413625
:100280000800100808100878464146786E616E0034
:10029000696E660000407A10F35A00A0724E180989
:1002A0000010A5D4E80000E87648170000E40B54DD
:1002B000020000CA9A3B000000E1F50500008096AC
:1002C0009800000040420F000000A08601000000DE
:1002D000102700000000E803000000006400000098
:1002E00000000A00000000000100000000002C7661
:1002F000D888DC674F0823DFC1DFAE59E1B1B7967C
:10030000E5E3E453C63AE651997696E8E6C28426D8
:10031000EB898C9B62ED407C6FFCEFBC9C9F40F2B4
:10032000BAA56FA5F490055A2AF75C936B6CF96730
:100330006DC11BFCE0E40D47FEF520E6B500D0EDF5
:10034000902E0300943577050080841E080000205D
:100350004E0A000000C80C333333330F986E1283FB
:100360001141EF8D2114893BE65516CFFEE6DB18CF
:10037000D1844B381BF77C1D901DA4BBE424203294
:1003800084725E228100C9F124ECA1E53D2711248D
:100390001FBECFEFDAE0DEBFCDBF11E0A0E0B1E0DD
:1003A000ECE8FDE602C005900D92A23BB107D9F73B
:1003B00018E0A2EBB1E001C01D92A438B107E1F74B
:1003C0000E94682A0C94C4360C9400001F920F926D
:1003D0000FB60F9211248F939F938091BB01909140
:1003E000BC0101969093BC018093BB019F918F91BA
:1003F0000F900FBE0F901F901895AF92BF92CF92A3
:10040000DF92EF92FF920F931F936091BB01709167
:10041000BC01E0909400F090950080E090E00E9494
:10042000553220E030E040E857E40E940B335B0196
:100430006C0100E010E0C801B7010E9455329B0139
:10044000AC01C601B5010E94543120E030E040E02B
:1004500051E40E940B3320E034E244EF5AE40E945E
:10046000BC310E942432CB011F910F91FF90EF907D
:10047000DF90CF90BF90AF9008954F925F926F92B0
:100480007F928F929F92AF92BF92CF92DF92EF9224
:10049000FF920F931F93DF93CF93CDB7DEB7E8A4FE
:1004A000F9A40AA51BA52396CEACDFAC239725960D
:1004B000AEACBFAC25976B897C898D899E890E94E3
:1004C00024322B016F89788D898D9A8D0E94243278
:1004D0003B016CA57DA58EA59FA50E9424324B01F2
:1004E00068A979A98AA99BA90E942432060D171D23
:1004F0000617170714F420E007C020E0E40CF51CF1
:10050000E814F9040CF021E0C80CD91CC414D5047B
:100510000CF420E0A60EB71EA614B7040CF420E0DD
:10052000822FCF91DF911F910F91FF90EF90DF907D
:10053000CF90BF90AF909F908F907F906F905F9083
:100540004F90089588EE91E00E94222D82EB95E075
:100550000E94222D81E193E00E94222D81EF94E000
:100560000E94222D84EA93E00E94222D8CE592E0E5
:100570000E94222D8DEB91E00E94222D80E395E0D8
:100580000E94222D8BE393E00E94222D87EE92E0C1
:100590000E94222D87EC94E00E94222D87E796E0AE
:1005A0000E94222D87E492E00E94222D86E096E0B0
:1005B0000E94222D81E593E00E94222D82E392E0A9
:1005C0000E94222D8CED94E00E94222D85E495E07E
:1005D0000E94222D8CED95E00E94222D86E293E070
:1005E0000E94222D8AE892E00E94222D81EF95E060
:1005F0000E94222D8CEF92E00E94222D86E095E051
:100600000E94222D089584EA93E00E94222D8CE519
:1006100092E00E94222D87EC94E00E94222D88EE29
:1006200091E00E94222D82EB95E00E94222D81E133
:1006300093E00E94222D81EF94E00E94222D8BE115
:1006400095E00E94222D81E792E00E94222D8FE802
:1006500093E00E94222D82ED91E00E94222D87ECF2
:1006600095E00E94222D85E495E00E94222D0E94B3
:10067000782C08952F923F924F925F926F927F92C3
:100680008F929F92AF92BF92CF92DF92EF92FF92A2
:100690000F931F93DF93CF93CDB7DEB728970FB695
:1006A000F894DEBF0FBECDBF8091E7029091E802C3
:1006B000A091E902B091EA028D839E83AF83B8874F
:1006C0006091A4037091A5038091A6039091A70364
:1006D0002D813E814F8158850E9453315B016C0111
:1006E0008091EB029091EC02A091ED02B091EE02AC
:1006F00089839A83AB83BC836091A8037091A9031B
:100700008091AA039091AB0329813A814B815C814E
:100710000E9453313B014C01C601B501A601950170
:100720000E940B337B018C01C401B301A40193012E
:100730000E940B339B01AC01C801B7010E945431E8
:100740000E9492331B012C01E0906A01F0906B0132
:1007500000916C0110916D01C601B501A8019701CE
:100760000E940B33A20191010E94BC315B016C011C
:100770006093860270938702809388029093890227
:10078000C401B301A80197010E940B33A20191019A
:100790000E94BC317B018C016093730670937406D8
:1007A0008093750690937606A092EF02B092F002C5
:1007B000C092F102D092F2026093F3027093F402BD
:1007C0008093F5029093F6026D817E818F819885EA
:1007D000A60195010E9454316093E7027093E802EC
:1007E0008093E9029093EA0269817A818B819C81EE
:1007F000A80197010E9454316093EB027093EC02C0
:100800008093ED029093EE0228960FB6F894DEBF27
:100810000FBECDBFCF91DF911F910F91FF90EF9051
:10082000DF90CF90BF90AF909F908F907F906F9010
:100830005F904F903F902F9008952F923F924F924C
:100840005F926F927F928F929F92AF92BF92CF9260
:10085000DF92EF92FF920F931F93DF93CF93CDB769
:10086000DEB728970FB6F894DEBF0FBECDBF8091DC
:100870003B0390913C03A0913D03B0913E038D83D7
:100880009E83AF83B8876091A4037091A503809184
:10089000A6039091A7032D813E814F8158850E9428
:1008A00053315B016C0180913F0390914003A09113
:1008B0004103B091420389839A83AB83BC836091E7
:1008C000A8037091A9038091AA039091AB03298199
:1008D0003A814B815C810E9453313B014C01C6013E
:1008E000B501A60195010E940B337B018C01C40167
:1008F000B301A40193010E940B339B01AC01C80119
:10090000B7010E9454310E9492331B012C01E090E8
:100910006A01F0906B0100916C0110916D01C601AC
:10092000B501A80197010E940B33A20191010E9419
:10093000BC315B016C0160938602709387028093E7
:10094000880290938902C401B301A80197010E9413
:100950000B33A20191010E94BC317B018C01609399
:100960007306709374068093750690937606A09232
:100970004303B0924403C0924503D0924603609370
:100980004703709348038093490390934A036D8112
:100990007E818F819885A60195010E9454316093D4
:1009A0003B0370933C0380933D0390933E03698126
:1009B0007A818B819C81A80197010E9454316093B8
:1009C0003F03709340038093410390934203289622
:1009D0000FB6F894DEBF0FBECDBFCF91DF911F9150
:1009E0000F91FF90EF90DF90CF90BF90AF909F90CE
:1009F0008F907F906F905F904F903F902F900895D1
:100A00002F923F924F925F926F927F928F929F921E
:100A1000AF92BF92CF92DF92EF92FF920F931F930C
:100A2000DF93CF93CDB7DEB728970FB6F894DEBF2C
:100A30000FBECDBF8091300590913105A091320558
:100A4000B09133058D839E83AF83B8876091A403F3
:100A50007091A5038091A6039091A7032D813E81FB
:100A60004F8158850E9453315B016C0180913405A0
:100A700090913505A0913605B091370589839A8309
:100A8000AB83BC836091A8037091A9038091AA03F2
:100A90009091AB0329813A814B815C810E94533153
:100AA0003B014C01C601B501A60195010E940B3323
:100AB0007B018C01C401B301A40193010E940B339B
:100AC0009B01AC01C801B7010E9454310E949233CE
:100AD0001B012C01E0906A01F0906B0100916C0108
:100AE00010916D01C601B501A80197010E940B3359
:100AF000A20191010E94BC315B016C0160938602EE
:100B0000709387028093880290938902C401B30195
:100B1000A80197010E940B33A20191010E94BC31F0
:100B20007B018C0160937306709374068093750645
:100B300090937606A0923805B0923905C0923A0596
:100B4000D0923B0560933C0570933D0580933E0534
:100B500090933F056D817E818F819885A6019501D7
:100B60000E945431609330057093310580933205B3
:100B70009093330569817A818B819C81A8019701CB
:100B80000E94543160933405709335058093360587
:100B90009093370528960FB6F894DEBF0FBECDBFF1
:100BA000CF91DF911F910F91FF90EF90DF90CF9049
:100BB000BF90AF909F908F907F906F905F904F907D
:100BC0003F902F9008952F923F924F925F926F9295
:100BD0007F928F929F92AF92BF92CF92DF92EF92CD
:100BE000FF920F931F93DF93CF93CDB7DEB7289774
:100BF0000FB6F894DEBF0FBECDBF8091BD019091BE
:100C0000BE01A091BF01B091C0018D839E83AF83CF
:100C1000B8876091A4037091A5038091A603909179
:100C2000A7032D813E814F8158850E9453315B017E
:100C30006C018091C1019091C201A091C301B0915A
:100C4000C40189839A83AB83BC836091A8037091AC
:100C5000A9038091AA039091AB0329813A814B812A
:100C60005C810E9453313B014C01C601B501A601D4
:100C700095010E940B337B018C01C401B301A401D7
:100C800093010E940B339B01AC01C801B7010E9484
:100C900054310E9492331B012C01E0906A01F090C4
:100CA0006B0100916C0110916D01C601B501A801A5
:100CB00097010E940B33A20191010E94BC315B019C
:100CC0006C016093860270938702809388029093F0
:100CD0008902C401B301A80197010E940B33A2014C
:100CE00091010E94BC317B018C016093730670936B
:100CF00074068093750690937606A092C501B09213
:100D0000C601C092C701D092C8016093C901709317
:100D1000CA018093CB019093CC016D817E818F813C
:100D20009885A60195010E9454316093BD0170938E
:100D3000BE018093BF019093C00169817A818B814C
:100D40009C81A80197010E9454316093C101709366
:100D5000C2018093C3019093C40128960FB6F89402
:100D6000DEBF0FBECDBFCF91DF911F910F91FF90DE
:100D7000EF90DF90CF90BF90AF909F908F907F903B
:100D80006F905F904F903F902F9008952F923F92D9
:100D90004F925F926F927F928F929F92AF92BF928B
:100DA000CF92DF92EF92FF920F931F93DF93CF9337
:100DB000CDB7DEB728970FB6F894DEBF0FBECDBF14
:100DC00080915C0290915D02A0915E02B0915F0201
:100DD0008D839E83AF83B8876091A4037091A50330
:100DE0008091A6039091A7032D813E814F81588564
:100DF0000E9453315B016C0180916002909161020D
:100E0000A0916202B091630289839A83AB83BC8311
:100E10006091A8037091A9038091AA039091AB03FC
:100E200029813A814B815C810E9453313B014C0105
:100E3000C601B501A60195010E940B337B018C010F
:100E4000C401B301A40193010E940B339B01AC01C7
:100E5000C801B7010E9454310E9492331B012C013A
:100E6000E0906A01F0906B0100916C0110916D01AE
:100E7000C601B501A80197010E940B33A20191019F
:100E80000E94BC315B016C01609386027093870203
:100E90008093880290938902C401B301A80197014D
:100EA0000E940B33A20191010E94BC317B018C0195
:100EB000609373067093740680937506909376061C
:100EC000A0926402B0926502C0926602D09267025C
:100ED000609368027093690280936A0290936B0238
:100EE0006D817E818F819885A60195010E94543184
:100EF00060935C0270935D0280935E0290935F0248
:100F000069817A818B819C81A80197010E9454316B
:100F10006093600270936102809362029093630217
:100F200028960FB6F894DEBF0FBECDBFCF91DF91EC
:100F30001F910F91FF90EF90DF90CF90BF90AF90F7
:100F40009F908F907F906F905F904F903F902F90E9
:100F500008950E94742A80E068E240E051E021E0B8
:100F60000E94582C0E94782C88EB9BE028EC30E003
:100F7000F9013197F1F70197D9F70E94742A80E0BF
:100F800068E245E051E021E00E94582C0E94782C54
:100F900088EB9BE028EC30E0F9013197F1F70197FD
:100FA000D9F70E94742A80E068E24AE051E021E02B
:100FB0000E94582C0E94782C88EB9BE028EC30E0B3
:100FC000F9013197F1F70197D9F70E94742A089532
:100FD00084E160E04FE051E021E00E94582C89E17B
:100FE00068E04AE151E021E00E94582C89E160E18B
:100FF00043E251E021E00E94582C80E068E24CE29C
:1010000051E021E00E94582C81E0809368010E9409
:10101000782C0895DF92EF92FF920F931F93F82E92
:10102000E62ED22E8DB79EB708970FB6F8949EBFC6
:101030000FBE8DBFEDB7FEB731960DEB14E0ADB727
:10104000BEB712961C930E9311978AE090E093839B
:10105000828386E391E095838483578346830E944D
:10106000D9358DB79EB708960FB6F8949EBF0FBEC0
:101070008DBF8F2D6E2DA8012D2D0E94582C1F91F4
:101080000F91FF90EF90DF9008950E94742A1092C4
:10109000B20181E060E049E351E021E00E94582C78
:1010A0004091B7015091B80183E260E021E00E94D5
:1010B0000A0881E060E140E451E021E00E94582C00
:1010C0004091B9015091BA0183E260E121E00E94B0
:1010D0000A080E94782C80E29EE428EC30E0F901B6
:1010E0003197F1F70197D9F71092B5010895EF9272
:1010F000FF920F931F93DF93CF93CDB7DEB7EC979B
:101100000FB6F894DEBF0FBECDBF0E94742A0E94B6
:10111000FD017C0181E060E049E351E021E00E94B3
:10112000582C4091B7015091B80183E260E021E072
:101130000E940A0881E068E047E451E021E00E9453
:10114000582C40916E0150916F0183E268E021E0DC
:101150000E940A0881E060E140E451E021E00E9441
:10116000582C4091B9015091BA0183E260E121E02D
:101170000E940A088DB79EB70A970FB6F8949EBFD3
:101180000FBE8DBFEDB7FEB731968E010F5F1F4FBB
:10119000ADB7BEB712961C930E9311978CE390E0F7
:1011A000938382838EE491E095838483C7016CE30B
:1011B00070E00E94003477836683C7016CE370E0BF
:1011C0000E940034918780870E94D9358DB79EB7E1
:1011D0000A960FB6F8949EBF0FBE8DBF81E068E1FE
:1011E000A80121E00E94582C0E94782CEC960FB6A2
:1011F000F894DEBF0FBECDBFCF91DF911F910F914D
:10120000FF90EF900895AF92BF92CF92DF92EF924E
:10121000FF920F931F93CF93DF93CFEFD1E08FEF28
:10122000899392E0C331D907D9F70E94AF3466E8B9
:1012300070E00E9400348F5F809350030E94AF34AF
:1012400061E670E00E940034182F1F5F1093E701E1
:101250008091B9019091BA01181619060CF56091A8
:10126000500370E080E090E00E9455326B017C01F9
:10127000612F70E080E090E00E9455328B019C016C
:1012800086E095E0B701A601A4E1EA2EF3E0CF2EB7
:10129000ECEEAE2EEFEFBE2EAC0EBD1E0E94FA2C71
:1012A000DF91CF911F910F91FF90EF90DF90CF9042
:1012B000BF90AF900895AF92BF92CF92DF92EF921E
:1012C000FF920F931F93CF93DF93CFEFD1E08FEF78
:1012D000899392E0C331D907D9F70E94AF3466E809
:1012E00070E00E9400348F5F809350030E94AF34FF
:1012F00061E670E00E940034182F1F5F1093E70131
:101300008091B9019091BA01181619060CF56091F7
:10131000500370E080E090E00E9455326B017C0148
:10132000612F70E080E090E00E9455328B019C01BB
:101330008CEF92E0B701A601F4E1EF2EE3E0CE2EB0
:10134000BCEEAB2EBFEFBB2EAC0EBD1E0E94FA2C26
:10135000DF91CF911F910F91FF90EF90DF90CF9091
:10136000BF90AF900895AF92BF92CF92DF92EF926D
:10137000FF920F931F93CF93DF93CFEFD1E08FEFC7
:10138000899392E0C331D907D9F70E94AF3466E858
:1013900070E00E9400348F5F809350030E94AF344E
:1013A00061E670E00E940034182F1F5F1093E70180
:1013B0008091B9019091BA01181619060CF5609147
:1013C000500370E080E090E00E9455326B017C0198
:1013D000612F70E080E090E00E9455328B019C010B
:1013E00081EF95E0B701A601E4E1EE2EB3E0CB2E4C
:1013F000ACEEAA2EAFEFBA2EAC0EBD1E0E94FA2C98
:10140000DF91CF911F910F91FF90EF90DF90CF90E0
:10141000BF90AF900895AF92BF92CF92DF92EF92BC
:10142000FF920F931F93CF93DF93C3E1D2E080EE3F
:10143000899392E0C233D907D9F70E94AF3467E9A4
:1014400070E00E9400348F5F809350030E94AF349D
:1014500065E470E00E940034182F1F5F1093E701CD
:101460008091B9019091BA01181619060CF5609196
:10147000500370E080E090E00E9455326B017C01E7
:10148000612F70E080E090E00E9455328B019C015A
:101490008AE892E0B701A601B3E0EB2EAFE1CA2ED5
:1014A000F1EEAF2EFFEFBF2EAC0EBD1E0E94FA2C48
:1014B000DF91CF911F910F91FF90EF90DF90CF9030
:1014C000BF90AF900895AF92BF92CF92DF92EF920C
:1014D000FF920F931F93CF93DF93C3E1D2E080EE8F
:1014E000899392E0C233D907D9F70E94AF3467E9F4
:1014F00070E00E9400348F5F809350030E94AF34ED
:1015000065E470E00E940034182F1F5F1093E7011C
:101510008091B9019091BA01181619060CF56091E5
:10152000500370E080E090E00E9455326B017C0136
:10153000612F70E080E090E00E9455328B019C01A9
:1015400086E293E0B701A601A3E0EA2EFFE1CF2EE9
:10155000E1EEAE2EEFEFBE2EAC0EBD1E0E94FA2CB9
:10156000DF91CF911F910F91FF90EF90DF90CF907F
:10157000BF90AF900895AF92BF92CF92DF92EF925B
:10158000FF920F931F93CF93DF93C3E1D2E080EEDE
:10159000899392E0C233D907D9F70E94AF3467E943
:1015A00070E00E9400348F5F809350030E94AF343C
:1015B00065E470E00E940034182F1F5F1093E7016C
:1015C0008091B9019091BA01181619060CF5609135
:1015D000500370E080E090E00E9455326B017C0186
:1015E000612F70E080E090E00E9455328B019C01F9
:1015F0008CED95E0B701A601F3E0EF2EEFE1CE2EE2
:10160000B1EEAB2EBFEFBB2EAC0EBD1E0E94FA2C6E
:10161000DF91CF911F910F91FF90EF90DF90CF90CE
:10162000BF90AF900895AF92BF92CF92DF92EF92AA
:10163000FF920F931F930E94AF3464E970E00E9401
:1016400000348F5F809350030E94AF346FE570E0E9
:101650000E940034182F1F5F1093E7018091B90199
:101660009091BA0118161906FCF46091500370E0CD
:1016700080E090E00E9455326B017C01612F70E0A8
:1016800080E090E00E9455328B019C018CED94E04B
:10169000B701A601E6E0EE2EB5E0CB2EA8EAAA2E11
:1016A000A1E0BA2E0E94FA2C1F910F91FF90EF90AB
:1016B000DF90CF90BF90AF900895AF92BF92CF923E
:1016C000DF92EF92FF920F931F930E94AF3464E971
:1016D00070E00E9400348F5F809350030E94AF340B
:1016E0006FE570E00E940034182F1F5F1093E70130
:1016F0008091B9019091BA0118161906FCF4609115
:10170000500370E080E090E00E9455326B017C0154
:10171000612F70E080E090E00E9455328B019C01C7
:1017200082E392E0B701A601B6E0EB2EA5E0CA2E57
:10173000F3EAAF2EF1E0BF2E0E94FA2C1F910F9119
:10174000FF90EF90DF90CF90BF90AF900895AF9251
:10175000BF92CF92DF92EF92FF920F931F930E945E
:10176000AF3464E970E00E9400348F5F80935003CF
:101770000E94AF346FE570E00E940034182F1F5FA5
:101780001093E7018091B9019091BA0118161906DA
:10179000FCF46091500370E080E090E00E945532CC
:1017A0006B017C01612F70E080E090E00E94553277
:1017B0008B019C0181E593E0B701A601A6E0EA2E2A
:1017C000F5E0CF2EE3EAAE2EE1E0BE2E0E94FA2C29
:1017D0001F910F91FF90EF90DF90CF90BF90AF904F
:1017E0000895AF92BF92CF92DF92EF92FF920F9344
:1017F0001F930E94AF3464E970E00E9400348F5F51
:10180000809350030E94AF346FE570E00E94003473
:10181000182F1F5F1093E7018091B9019091BA01D1
:1018200018161906FCF46091500370E080E090E017
:101830000E9455326B017C01612F70E080E090E0E6
:101840000E9455328B019C0186E096E0B701A6010B
:10185000F6E0EF2EE5E0CE2EB3EAAB2EB1E0BB2EE4
:101860000E94FA2C1F910F91FF90EF90DF90CF9084
:10187000BF90AF900895AF92BF92CF92DF92EF9258
:10188000FF920F931F930E94AF3464E970E00E94AF
:1018900000348F5F809350030E94AF346FE570E097
:1018A0000E940034182F1F5F1093E7018091B90147
:1018B0009091BA0118161906FCF46091500370E07B
:1018C00080E090E00E9455326B017C01612F70E056
:1018D00080E090E00E9455328B019C0187E492E009
:1018E000B701A601E6E0EE2EB5E0CB2EA3EAAA2EC4
:1018F000A1E0BA2E0E94FA2C1F910F91FF90EF9059
:10190000DF90CF90BF90AF900895AF92BF92CF92EB
:10191000DF92EF92FF920F931F930E94AF3464E91E
:1019200070E00E9400348F5F809350030E94AF34B8
:101930006FE570E00E940034182F1F5F1093E701DD
:101940008091B9019091BA0118161906FCF46091C2
:10195000500370E080E090E00E9455326B017C0102
:10196000612F70E080E090E00E9455328B019C0175
:1019700087E796E0B701A601B6E0EB2EA5E0CA2EF8
:10198000F3EAAF2EF1E0BF2E0E94FA2C1F910F91C7
:10199000FF90EF90DF90CF90BF90AF900895AF92FF
:1019A000BF92CF92DF92EF92FF920F931F9381EF3E
:1019B0009FEF9093FE018093FD018CEE9FEF90933B
:1019C000BC048093BB040E94AF3463E970E00E94C2
:1019D00000348F5F809350030E94AF3461E670E063
:1019E0000E940034182F1F5F1093E7018091B90106
:1019F0009091BA01892BB9F46091FD017091FE01BB
:101A0000882777FD8095982F0E9457326B017C01C3
:101A10006091BB047091BC04882777FD8095982F56
:101A20000E9457320FC06091500370E080E090E058
:101A30000E9455326B017C01612F70E080E090E0E4
:101A40000E9455328B019C0187EC94E0B701A601FE
:101A5000A7E0EA2EF3E0CF2EE0EAAE2EE1E0BE2EC4
:101A60000E94FA2C1F910F91FF90EF90DF90CF9082
:101A7000BF90AF900895AF92BF92CF92DF92EF9256
:101A8000FF920F931F930E94AF3465E970E00E94AC
:101A900000348F5F809350030E94AF346DE570E097
:101AA0000E940034182F1F5F1093E7018091B90145
:101AB0009091BA0118161906FCF46091500370E079
:101AC00080E090E00E9455326B017C01612F70E054
:101AD00080E090E00E9455328B019C0187EE92E0FD
:101AE000B701A601F5E0EF2EE7E0CE2EB9E9AB2E67
:101AF000B1E0BB2E0E94FA2C1F910F91FF90EF9046
:101B0000DF90CF90BF90AF900895AF92BF92CF92E9
:101B1000DF92EF92FF920F931F930E94AF3465E91B
:101B200070E00E9400348F5F809350030E94AF34B6
:101B30006DE570E00E940034182F1F5F1093E701DD
:101B40008091B9019091BA0118161906FCF46091C0
:101B5000500370E080E090E00E9455326B017C0100
:101B6000612F70E080E090E00E9455328B019C0173
:101B70008BE393E0B701A601E5E0EE2EB7E0CB2EB4
:101B8000A9E9AA2EA1E0BA2E0E94FA2C1F910F916A
:101B9000FF90EF90DF90CF90BF90AF900895AF92FD
:101BA000BF92CF92DF92EF92FF920F931F930E940A
:101BB000AF3465E970E00E9400348F5F809350037A
:101BC0000E94AF346DE570E00E940034182F1F5F53
:101BD0001093E7018091B9019091BA011816190686
:101BE000FCF46091500370E080E090E00E94553278
:101BF0006B017C01612F70E080E090E00E94553223
:101C00008B019C0180E395E0B701A601B5E0EB2EC6
:101C1000A7E0CA2EF9E9AF2EF1E0BF2E0E94FA2C00
:101C20001F910F91FF90EF90DF90CF90BF90AF90FA
:101C30000895AF92BF92CF92DF92EF92FF920F93EF
:101C40001F930E94AF3465E970E00E9400348F5FFB
:101C5000809350030E94AF346DE570E00E94003421
:101C6000182F1F5F1093E7018091B9019091BA017D
:101C700018161906FCF46091500370E080E090E0C3
:101C80000E9455326B017C01612F70E080E090E092
:101C90000E9455328B019C018DEB91E0B701A601AA
:101CA000A5E0EA2EF7E0CF2EE9E9AE2EE1E0BE2E68
:101CB0000E94FA2C1F910F91FF90EF90DF90CF9030
:101CC000BF90AF900895AF92BF92CF92DF92EF9204
:101CD000FF920F931F9383E690E09093FE01809311
:101CE000FD018CEE9FEF9093BC048093BB040E9497
:101CF000AF3465E970E00E9400348F5F8093500339
:101D00000E94AF346DE570E00E940034182F1F5F11
:101D10001093E7018091B9019091BA01892BB9F430
:101D20006091FD017091FE01882777FD8095982FC5
:101D30000E9457326B017C016091BB047091BC041E
:101D4000882777FD8095982F0E9457320FC06091A9
:101D5000500370E080E090E00E9455326B017C01FE
:101D6000612F70E080E090E00E9455328B019C0171
:101D70008CE592E0B701A601F5E0EF2EE7E0CE2E6C
:101D8000B9E9AB2EB1E0BB2E0E94FA2C1F910F9146
:101D9000FF90EF90DF90CF90BF90AF900895AF92FB
:101DA000BF92CF92EF920F931F9387E290E09093B0
:101DB000FE018093FD018EE190E09093BC0480933E
:101DC000BB0484EA93E040E050E06CE172E400E0A0
:101DD00010E020EF31E4E7E0EE2EBBE0CB2EAEE8E2
:101DE000AA2EA1E0BA2E0E94FA2C1F910F91EF901B
:101DF000CF90BF90AF900895AF92BF92CF92EF92E5
:101E00000F931F93E9EBF3E08FEF819394E0E335B9
:101E1000F907D9F781E193E040E050E06CE072EC23
:101E200000E010E028E432ECBAE9EB2EA8E0CA2E7C
:101E3000F9EBAF2EF3E0BF2E0E94FA2C81EF94E075
:101E400040E050E06CE072EC00E010E028E432E4A6
:101E50000E94FA2C1F910F91EF90CF90BF90AF90FE
:101E60000895AF92BF92CF92EF920F931F93E3E545
:101E7000F4E08FEF819394E0E73BF907D9F782EB29
:101E800095E040E050E06CE072EC00E010E028E407
:101E900032ECA8E0EA2EF4E6CF2EE3E5AE2EE4E045
:101EA000BE2E0E94FA2C88EE91E040E050E06EEDEC
:101EB00072E400E010E028E432EC0E94FA2C1F915A
:101EC0000F91EF90CF90BF90AF900895AF92BF92D7
:101ED000CF92DF92EF92FF920F931F9382E290E0F6
:101EE0009093FE018093FD0181E090E09093BC040B
:101EF0008093BB040E94AF346AE870E00E94003413
:101F00008F5F809350030E94AF3465E570E00E94BC
:101F10000034182F1F5F1093E7018091B901909151
:101F2000BA01892BB9F46091FD017091FE018827F7
:101F300077FD8095982F0E9457326B017C0160914C
:101F4000BB047091BC04882777FD8095982F0E9470
:101F500057320FC06091500370E080E090E00E9423
:101F600055326B017C01612F70E080E090E00E94AF
:101F700055328B019C0185E495E0B701A601F0E1A3
:101F8000EF2EEFE0CE2EB0E7AB2EB1E0BB2E0E94DD
:101F9000FA2C1F910F91FF90EF90DF90CF90BF90A0
:101FA000AF9008958F929F92AF92BF92CF92EF928F
:101FB0000F931F93EAE6F3E08FEF819393E0EF38FE
:101FC000F907D9F7BBED8B2EBFEF9B2E8E0E9F1E10
:101FD00082ED91E040E050E060E070EC00E010E065
:101FE00020E831E4A5E2EA2ECC24C39454010E94F7
:101FF000FA2C87EC95E040E050E064E472E400E005
:1020000010E020E831E40E94FA2C1F910F91EF902C
:10201000CF90BF90AF909F908F900895AF92BF9256
:10202000CF92EF920F931F93EAE5F5E080E881935A
:1020300095E0E23BF907D9F7EBE1F6E081E0819327
:1020400096E0E337F907D9F781E792E040E050E006
:1020500060E070EC00E010E020E932ECB8E0EB2E3C
:10206000A8E5CA2EFAE5AF2EF5E0BF2E0E94FA2CA5
:102070008FE893E040E050E06CE972E400E010E0AB
:1020800020E932ECEBE1AE2EE6E0BE2E0E94FA2C07
:102090001F910F91EF90CF90BF90AF9008950E9445
:1020A0000E100E94D20F0E94CF0E0E94630E0E945B
:1020B000190E0E94CF0D0E94850D0E943B0D0E94BB
:1020C000CF0C0E94130B0E94850C0E943B0C0E94B7
:1020D000F10B0E94A70B0E945D0B0E94660F0E94ED
:1020E000BB0A0E94630A0E940B0A0E94B3090E9465
:1020F0005B090E9403090895AF92BF92CF92EF92BD
:102100000F931F93EFE9F2E0119282E0E73EF807A8
:10211000D9F78BE195E040E050E060E070EC00E042
:1021200010E028E432ECA8E4EA2EF8E0CF2EEFE944
:10213000AE2EE2E0BE2E0E94FA2C1F910F91EF907E
:10214000CF90BF90AF9008950E94CF0E0E94630E73
:102150000E94CF0C0E947C100E940E100E94D20F91
:102160000E94660F0E94310F0E94FC0E08951F937B
:10217000E1E6F0E080E8808311E010838FE30E94C5
:10218000AC2C3F9A479A1092900082E08093910085
:10219000109371007894869885982198509851985A
:1021A000279820980E94E8070E94A4101F91089584
:1021B000CF92DF92EF92FF920F931F93DF93CF9313
:1021C000CDB7DEB7AA970FB6F894DEBF0FBECDBF6E
:1021D000DE011196E4EAF3E085E101900D92815071
:1021E000E1F7ED80FE800F81188569817A818B810E
:1021F0009C81DE015696E2EBF5E025E101900D921F
:102200002150E1F70E9424326B01C801B7010E94FE
:1022100024327B016E897F89888D998D0E942432BA
:102220008B016A8D7B8D8C8D9D8D0E942432C70120
:102230000B968617970714F420E007C020E0C6012C
:102240000796801791070CF021E0085F1F4F0C15CF
:102250001D050CF420E06C597F4F6E157F0574F05E
:10226000222361F080E090E0A0E0B0EC8093660370
:1022700090936703A0936803B0936903DE015696B9
:10228000E4EAF3E085E101900D928150E1F7EA8CF8
:10229000FB8C0C8D1D8D6E897F89888D998DDE015B
:1022A0001196E8EEF1E025E101900D922150E1F761
:1022B0000E9424326B01C801B7010E9424327B01C5
:1022C00069817A818B819C810E9424328B016D818E
:1022D0007E818F8198850E942432C7010B968617D4
:1022E000970714F420E007C020E0C6010796801786
:1022F00091070CF021E0085F1F4F0C151D050CF431
:1023000020E06C597F4F6E157F0574F0222361F039
:1023100080E090E0A0E0B0E48093660390936703D0
:10232000A0936803B0936903DE011196E4EAF3E039
:1023300085E101900D928150E1F7ED80FE800F81E3
:10234000188569817A818B819C81DE015696E1E155
:10235000F3E025E101900D922150E1F70E94243233
:102360006B01C801B7010E9424327B016E897F890D
:10237000888D998D0E9424328B016A8D7B8D8C8D86
:102380009D8D0E942432C7010B968617970714F47F
:1023900020E007C020E0C6010796801791070CF0E7
:1023A00021E006561F4F0C151D050CF420E0685F58
:1023B0007F4F6E157F0574F0222361F080E090E07E
:1023C000A0E0B0EC8093B7049093B804A093B90454
:1023D000B093BA04DE015696E4EAF3E085E1019099
:1023E0000D928150E1F7EA8CFB8C0C8D1D8D6E896E
:1023F0007F89888D998DDE011196E1EFF4E025E16A
:1024000001900D922150E1F70E9424326B01C80126
:10241000B7010E9424327B0169817A818B819C8182
:102420000E9424328B016D817E818F8198850E946C
:102430002432C7010B968617970714F420E007C0D3
:1024400020E0C6010796801791070CF021E00656A0
:102450001F4F0C151D050CF420E0685F7F4F6E15B3
:102460007F0574F0222361F080E090E0A0E0B0E40A
:102470008093B7049093B804A093B904B093BA04BE
:10248000DE011196E4EAF3E085E101900D928150BE
:10249000E1F7ED80FE800F81188569817A818B815B
:1024A0009C81DE015696E1E7F2E025E101900D9274
:1024B0002150E1F70E9424326B01C801B7010E944C
:1024C00024327B016E897F89888D998D0E94243208
:1024D0008B016A8D7B8D8C8D9D8D0E942432C7016E
:1024E0000B968617970714F420E007C020E0C6017A
:1024F0000796801791070CF021E0085F1F4F0C151D
:102500001D050CF420E0685A7F4F6E157F0574F0AE
:10251000222361F080E090E0A0E0B0E480936603C5
:1025200090936703A0936803B0936903DE01569606
:10253000E4EAF3E085E101900D928150E1F7EA8C45
:10254000FB8C0C8D1D8D6E897F89888D998DDE01A8
:102550001196EFE8F3E025E101900D922150E1F7AB
:102560000E9424326B01C801B7010E9424327B0112
:1025700069817A818B819C810E9424328B016D81DB
:102580007E818F8198850E942432C7010B96861721
:10259000970714F420E007C020E0C60107968017D3
:1025A00091070CF021E0085F1F4F0C151D050CF47E
:1025B00020E0685A7F4F6E157F0574F0222361F08A
:1025C00080E090E0A0E0B0EC809366039093670316
:1025D000A0936803B0936903DE011196E4EAF3E087
:1025E00085E101900D928150E1F7ED80FE800F8131
:1025F000188569817A818B819C81DE015696E2ED96
:10260000F1E025E101900D922150E1F70E94243282
:102610006B01C801B7010E9424327B016E897F895A
:10262000888D998D0E9424328B016A8D7B8D8C8DD3
:102630009D8D0E942432C7010B968617970714F4CC
:1026400020E007C020E0C6010796801791070CF034
:1026500021E00B5D1F4F0C151D050CF420E06F5F92
:102660007F4F6E157F0574F0222361F080E090E0CB
:10267000A0E0B0EC8093B7049093B804A093B904A1
:10268000B093BA04DE015696E4EAF3E085E10190E6
:102690000D928150E1F7EA8CFB8C0C8D1D8D6E89BB
:1026A0007F89888D998DDE011196E7ECF5E025E1B3
:1026B00001900D922150E1F70E9424326B01C80174
:1026C000B7010E9424327B0169817A818B819C81D0
:1026D0000E9424328B016D817E818F8198850E94BA
:1026E0002432C7010B968617970714F420E007C021
:1026F00020E0C6010796801791070CF021E00B5DE2
:102700001F4F0C151D050CF420E06F5F7F4F6E15F9
:102710007F0574F0222361F080E090E0A0E0B0EC4F
:102720008093B7049093B804A093B904B093BA040B
:10273000DE011196ECE5F2E085E101900D92815009
:10274000E1F7ED80FE800F81188569817A818B81A8
:102750009C81DE015696E1E7F2E025E101900D92C1
:102760002150E1F70E9424326B01C801B7010E9499
:1027700024327B016E897F89888D998D0E94243255
:102780008B016A8D7B8D8C8D9D8D0E942432C701BB
:1027900007968617970714F420E007C020E0C601CB
:1027A0000596801791070CF021E0085F1F4F0C156C
:1027B0001D050CF420E0685A7F4F6E157F05C4F0AC
:1027C0002223B1F060915C0270915D0280915E0203
:1027D00090915F0220E030E040E050E40E945331ED
:1027E00060935C0270935D0280935E0290935F023F
:1027F000DE015696ECE5F2E085E101900D92815004
:10280000E1F7EA8CFB8C0C8D1D8D6E897F89888D9C
:10281000998DDE011196EFE8F3E025E101900D922C
:102820002150E1F70E9424326B01C801B7010E94D8
:1028300024327B0169817A818B819C810E942432C0
:102840008B016D817E818F8198850E942432C70122
:1028500007968617970714F420E007C020E0C6010A
:102860000596801791070CF021E0085F1F4F0C15AB
:102870001D050CF420E0685A7F4F6E157F05C4F0EB
:102880002223B1F060915C0270915D0280915E0242
:1028900090915F0220E030E040E050E40E9454312B
:1028A00060935C0270935D0280935E0290935F027E
:1028B000DE011196ECE5F2E085E101900D92815088
:1028C000E1F7ED80FE800F81188569817A818B8127
:1028D0009C81DE015696E2EDF1E025E101900D923A
:1028E0002150E1F70E9424326B01C801B7010E9418
:1028F00024327B016E897F89888D998D0E942432D4
:102900008B016A8D7B8D8C8D9D8D0E942432C70139
:1029100007968617970714F420E007C020E0C60149
:102920000596801791070CF021E00B5D1F4F0C15E9
:102930001D050CF420E06F5F7F4F6E157F05C4F01E
:102940002223B1F060916002709161028091620275
:102950009091630220E030E040E050E40E94543166
:1029600060936002709361028093620290936302AD
:10297000DE015696ECE5F2E085E101900D92815082
:10298000E1F7EA8CFB8C0C8D1D8D6E897F89888D1B
:10299000998DDE011196E7ECF5E025E101900D92AD
:1029A0002150E1F70E9424326B01C801B7010E9457
:1029B00024327B0169817A818B819C810E9424323F
:1029C0008B016D817E818F8198850E942432C701A1
:1029D00007968617970714F420E007C020E0C60189
:1029E0000596801791070CF021E00B5D1F4F0C1529
:1029F0001D050CF420E06F5F7F4F6E157F05C4F05E
:102A00002223B1F0609160027091610280916202B4
:102A10009091630220E030E040E050E40E945431A5
:102A200060936002709361028093620290936302EC
:102A3000DE011196E4EAF3E085E101900D92815008
:102A4000E1F7ED80FE800F81188569817A818B81A5
:102A50009C81DE015696E7E7F6E025E101900D92B4
:102A60002150E1F70E9424326B01C801B7010E9496
:102A700024327B016E897F89888D998D0E94243252
:102A80008B016A8D7B8D8C8D9D8D0E942432C701B8
:102A90000B968617970714F420E007C020E0C601C4
:102AA0000796801791070CF021E00A5F1F4F0C1565
:102AB0001D050CF420E06B5F7F4F6E157F056CF0F9
:102AC000222359F08091B7019091B8010A96909312
:102AD000B8018093B70110928906DE015696E4EAA8
:102AE000F3E085E101900D928150E1F7EA8CFB8CD7
:102AF0000C8D1D8D6E897F89888D998DDE011196D3
:102B0000E7E4F2E025E101900D922150E1F70E9407
:102B100024326B01C801B7010E9424327B01698114
:102B20007A818B819C810E9424328B016D817E8110
:102B30008F8198850E942432C7010B9686179707CC
:102B400014F420E007C020E0C60107968017910723
:102B50000CF021E00A5F1F4F0C151D050CF420E05E
:102B60006B5F7F4F6E157F056CF0222359F08091CB
:102B7000B7019091B8010A969093B8018093B7017C
:102B800010925902DE011196E4EAF3E085E101902A
:102B90000D928150E1F7ED80FE800F8118856981EB
:102BA0007A818B819C81DE015696E6E0F6E025E194
:102BB00001900D922150E1F70E9424326B01C8016F
:102BC000B7010E9424327B016E897F89888D998D9F
:102BD0000E9424328B016A8D7B8D8C8D9D8D0E948D
:102BE0002432C7010B968617970714F420E007C01C
:102BF00020E0C6010796801791070CF021E00A5FDC
:102C00001F4F0C151D050CF420E06B5F7F4F6E15F8
:102C10007F056CF0222359F08091B7019091B801A3
:102C20000A969093B8018093B70110921806DE01BE
:102C30005696E4EAF3E085E101900D928150E1F7C8
:102C4000EA8CFB8C0C8D1D8D6E897F89888D998D0A
:102C5000DE011196E1E5F3E025E101900D922150AE
:102C6000E1F70E9424326B01C801B7010E942432AF
:102C70007B0169817A818B819C810E9424328B0146
:102C80006D817E818F8198850E942432C7010B96C9
:102C90008617970714F420E007C020E0C6010796C6
:102CA000801791070CF021E00A5F1F4F0C151D05DE
:102CB0000CF420E06B5F7F4F6E157F056CF02223D4
:102CC00059F08091B7019091B8010A969093B8019C
:102CD0008093B70110926303DE011196E4EAF3E0FA
:102CE00085E101900D928150E1F7ED80FE800F812A
:102CF000188569817A818B819C81DE015696E2E399
:102D0000F2E025E101900D922150E1F70E9424327A
:102D10006B01C801B7010E9424327B016E897F8953
:102D2000888D998D0E9424328B016A8D7B8D8C8DCC
:102D30009D8D0E942432C7010B968617970714F4C5
:102D400020E007C020E0C6010796801791070CF02D
:102D500021E00A5F1F4F0C151D050CF420E06B5F8E
:102D60007F4F6E157F056CF0222359F08091B701DB
:102D70009091B8010A969093B8018093B701109290
:102D80004402DE015696E4EAF3E085E101900D92FB
:102D90008150E1F7EA8CFB8C0C8D1D8D6E897F894B
:102DA000888D998DDE011196ECEDF4E025E101901E
:102DB0000D922150E1F70E9424326B01C801B70146
:102DC0000E9424327B0169817A818B819C810E94DF
:102DD00024328B016D817E818F8198850E942432FF
:102DE000C7010B968617970714F420E007C020E070
:102DF000C6010796801791070CF021E00A5F1F4F6C
:102E00000C151D050CF420E06B5F7F4F6E157F05E0
:102E10002CF0222319F081E08093B301DE0111969A
:102E2000E4EAF3E085E101900D928150E1F7ED8055
:102E3000FE800F81188569817A818B819C81DE01FA
:102E40005696ECEDF5E025E101900D922150E1F769
:102E50000E9424326B01C801B7010E9424327B0119
:102E60006E897F89888D998D0E9424328B016A8DAD
:102E70007B8D8C8D9D8D0E942432C7010B96861709
:102E8000970714F420E007C020E0C60107968017DA
:102E900091070CF021E00D5F1F4F0C151D050CF480
:102EA00020E0615E7F4F6E157F0574F0222361F094
:102EB00080E090E0A0E0B0EC80936603909367031D
:102EC000A0936803B0936903DE015696E4EAF3E049
:102ED00085E101900D928150E1F7EA8CFB8C0C8D1D
:102EE0001D8D6E897F89888D998DDE011196E6E2B0
:102EF000F3E025E101900D922150E1F70E94243288
:102F00006B01C801B7010E9424327B0169817A817B
:102F10008B819C810E9424328B016D817E818F8107
:102F200098850E942432C7010B968617970714F4E0
:102F300020E007C020E0C6010796801791070CF03B
:102F400021E00D5F1F4F0C151D050CF420E0615EA4
:102F50007F4F6E157F0574F0222361F080E090E0D2
:102F6000A0E0B0E48093660390936703A0936803A6
:102F7000B0936903DE011196E4EAF3E085E1019084
:102F80000D928150E1F7ED80FE800F8118856981F7
:102F90007A818B819C81DE015696EAE8F2E025E198
:102FA00001900D922150E1F70E9424326B01C8017B
:102FB000B7010E9424327B016E897F89888D998DAB
:102FC0000E9424328B016A8D7B8D8C8D9D8D0E9499
:102FD0002432C7010B968617970714F420E007C028
:102FE00020E0C6010796801791070CF021E00D5FE5
:102FF0001F4F0C151D050CF420E0615E7F4F6E1510
:103000007F0574F0222361F080E090E0A0E0B0E45E
:103010008093660390936703A0936803B09369035A
:10302000DE015696ECE5F2E085E101900D928150CB
:10303000E1F7EA8CFB8C0C8D1D8D6E897F89888D64
:10304000998DDE011196ECEDF5E025E101900D92F0
:103050002150E1F70E9424326B01C801B7010E94A0
:1030600024327B0169817A818B819C810E94243288
:103070008B016D817E818F8198850E942432C701EA
:1030800007968617970714F420E007C020E0C601D2
:103090000596801791070CF021E00D5F1F4F0C156E
:1030A0001D050CF420E0615E7F4F6E157F05C4F0B6
:1030B0002223B1F060915C0270915D0280915E020A
:1030C00090915F0220E030E040E050E40E945431F3
:1030D00060935C0270935D0280935E0290935F0246
:1030E000DE011196ECE5F2E085E101900D92815050
:1030F000E1F7ED80FE800F81188569817A818B81EF
:103100009C81DE015696E6E2F3E025E101900D9206
:103110002150E1F70E9424326B01C801B7010E94DF
:1031200024327B016E897F89888D998D0E9424329B
:103130008B016A8D7B8D8C8D9D8D0E942432C70101
:1031400007968617970714F420E007C020E0C60111
:103150000596801791070CF021E00D5F1F4F0C15AD
:103160001D050CF420E0615E7F4F6E157F05C4F0F5
:103170002223B1F060915C0270915D0280915E0249
:1031800090915F0220E030E040E050E40E94543132
:1031900060935C0270935D0280935E0290935F0285
:1031A000DE015696ECE5F2E085E101900D9281504A
:1031B000E1F7EA8CFB8C0C8D1D8D6E897F89888DE3
:1031C000998DDE011196EAE8F2E025E101900D9279
:1031D0002150E1F70E9424326B01C801B7010E941F
:1031E00024327B0169817A818B819C810E94243207
:1031F0008B016D817E818F8198850E942432C70169
:1032000007968617970714F420E007C020E0C60150
:103210000596801791070CF021E00D5F1F4F0C15EC
:103220001D050CF420E0615E7F4F6E157F05C4F034
:103230002223B1F060915C0270915D0280915E0288
:1032400090915F0220E030E040E050E40E94543171
:1032500060935C0270935D0280935E0290935F02C4
:10326000DE011196EDEBF1E085E101900D928150C8
:10327000E1F7ED80FE800F81188569817A818B816D
:103280009C81DE015696ECEDF5E025E101900D9272
:103290002150E1F70E9424326B01C801B7010E945E
:1032A00024327B016E897F89888D998D0E9424321A
:1032B0008B016A8D7B8D8C8D9D8D0E942432C70180
:1032C00007968617970714F420E007C020E0C60190
:1032D0000596801791070CF021E00D5F1F4F0C152C
:1032E0001D050CF420E0615E7F4F6E157F05C4F074
:1032F0002223B1F06091BD017091BE018091BF01A8
:103300009091C00120E030E040E050E40E94543150
:103310006093BD017093BE018093BF019093C00183
:10332000DE015696EDEBF1E085E101900D928150C2
:10333000E1F7EA8CFB8C0C8D1D8D6E897F89888D61
:10334000998DDE011196E6E2F3E025E101900D9200
:103350002150E1F70E9424326B01C801B7010E949D
:1033600024327B0169817A818B819C810E94243285
:103370008B016D817E818F8198850E942432C701E7
:1033800007968617970714F420E007C020E0C601CF
:103390000596801791070CF021E00D5F1F4F0C156B
:1033A0001D050CF420E0615E7F4F6E157F05C4F0B3
:1033B0002223B1F06091BD017091BE018091BF01E7
:1033C0009091C00120E030E040E050E40E94543190
:1033D0006093BD017093BE018093BF019093C001C3
:1033E000DE011196E0E3F5E085E101900D92815058
:1033F000E1F7ED80FE800F81188569817A818B81EC
:103400009C81DE015696EAE8F2E025E101900D92FA
:103410002150E1F70E9424326B01C801B7010E94DC
:1034200024327B016E897F89888D998D0E94243298
:103430008B016A8D7B8D8C8D9D8D0E942432C701FE
:1034400007968617970714F420E007C020E0C6010E
:103450000596801791070CF021E00D5F1F4F0C15AA
:103460001D050CF420E0615E7F4F6E157F05C4F0F2
:103470002223B1F0609130057091310580913205C1
:103480009091330520E030E040E050E40E94543158
:103490006093300570933105809332059093330526
:1034A000DE015696E0E3F5E085E101900D92815052
:1034B000E1F7EA8CFB8C0C8D1D8D6E897F89888DE0
:1034C000998DDE011196ECEDF5E025E101900D926C
:1034D0002150E1F70E9424326B01C801B7010E941C
:1034E00024327B0169817A818B819C810E94243204
:1034F0008B016D817E818F8198850E942432C70166
:1035000007968617970714F420E007C020E0C6014D
:103510000596801791070CF021E00D5F1F4F0C15E9
:103520001D050CF420E0615E7F4F6E157F05C4F031
:103530002223B1F060913005709131058091320500
:103540009091330520E030E040E050E40E94543197
:103550006093300570933105809332059093330565
:10356000DE011196EBE3F3E085E101900D928150CD
:10357000E1F7ED80FE800F81188569817A818B816A
:103580009C81DE015696E6E2F3E025E101900D9282
:103590002150E1F70E9424326B01C801B7010E945B
:1035A00024327B016E897F89888D998D0E94243217
:1035B0008B016A8D7B8D8C8D9D8D0E942432C7017D
:1035C00007968617970714F420E007C020E0C6018D
:1035D0000596801791070CF021E00D5F1F4F0C1529
:1035E0001D050CF420E0615E7F4F6E157F05C4F071
:1035F0002223B1F060913B0370913C0380913D0325
:1036000090913E0320E030E040E050E40E945431CD
:1036100060933B0370933C0380933D0390933E0380
:10362000DE015696E7EEF2E085E101900D928150C1
:10363000E1F7EA8CFB8C0C8D1D8D6E897F89888D5E
:10364000998DDE011196EAE8F2E025E101900D92F4
:103650002150E1F70E9424326B01C801B7010E949A
:1036600024327B0169817A818B819C810E94243282
:103670008B016D817E818F8198850E942432C701E4
:1036800007968617970714F420E007C020E0C601CC
:103690000596801791070CF021E00D5F1F4F0C1568
:1036A0001D050CF420E0615E7F4F6E157F05C4F0B0
:1036B0002223B1F06091E7027091E8028091E90263
:1036C0009091EA0220E030E040E050E40E94543162
:1036D0006093E7027093E8028093E9029093EA0214
:1036E000DE011196EBE3F3E085E101900D9281504C
:1036F000E1F7ED80FE800F81188569817A818B81E9
:103700009C81DE015696ECEDF5E025E101900D92ED
:103710002150E1F70E9424326B01C801B7010E94D9
:1037200024327B016E897F89888D998D0E94243295
:103730008B016A8D7B8D8C8D9D8D0E942432C701FB
:1037400007968617970714F420E007C020E0C6010B
:103750000596801791070CF021E00D5F1F4F0C15A7
:103760001D050CF420E0615E7F4F6E157F05C4F0EF
:103770002223B1F060913B0370913C0380913D03A3
:1037800090913E0320E030E040E050E40E9454314C
:1037900060933B0370933C0380933D0390933E03FF
:1037A000DE015696EBE3F3E085E101900D92815046
:1037B000E1F7EA8CFB8C0C8D1D8D6E897F89888DDD
:1037C000998DDE011196E6E2F3E025E101900D927C
:1037D0002150E1F70E9424326B01C801B7010E9419
:1037E00024327B0169817A818B819C810E94243201
:1037F0008B016D817E818F8198850E942432C70163
:1038000007968617970714F420E007C020E0C6014A
:103810000596801791070CF021E00D5F1F4F0C15E6
:103820001D050CF420E0615E7F4F6E157F05C4F02E
:103830002223B1F060913B0370913C0380913D03E2
:1038400090913E0320E030E040E050E40E9454318B
:1038500060933B0370933C0380933D0390933E033E
:10386000DE011196E7EEF2E085E101900D928150C4
:10387000E1F7ED80FE800F81188569817A818B8167
:103880009C81DE015696EAE8F2E025E101900D9276
:103890002150E1F70E9424326B01C801B7010E9458
:1038A00024327B016E897F89888D998D0E94243214
:1038B0008B016A8D7B8D8C8D9D8D0E942432C7017A
:1038C00007968617970714F420E007C020E0C6018A
:1038D0000596801791070CF021E00D5F1F4F0C1526
:1038E0001D050CF420E0615E7F4F6E157F05C4F06E
:1038F0002223B1F06091E7027091E8028091E90221
:103900009091EA0220E030E040E050E40E9454311F
:103910006093E7027093E8028093E9029093EA02D1
:10392000DE015696E4EAF3E085E101900D928150C4
:10393000E1F7EA8CFB8C0C8D1D8D6E897F89888D5B
:10394000998DDE011196E1EFF5E025E101900D92F0
:103950002150E1F70E9424326B01C801B7010E9497
:1039600024327B0169817A818B819C810E9424327F
:103970008B016D817E818F8198850E942432C701E1
:103980000B968617970714F420E007C020E0C601C5
:103990000796801791070CF021E00C5E1F4F0C1565
:1039A0001D050CF420E06D5F7F4F6E157F0574F0F0
:1039B000222361F080E090E0A0E0B0E48093B704BF
:1039C0009093B804A093B904B093BA04DE011196A1
:1039D000E4EAF3E085E101900D928150E1F7ED809A
:1039E000FE800F81188569817A818B819C81DE013F
:1039F0005696ECEFF2E025E101900D922150E1F7AF
:103A00000E9424326B01C801B7010E9424327B015D
:103A10006E897F89888D998D0E9424328B016A8DF1
:103A20007B8D8C8D9D8D0E942432C7010B9686174D
:103A3000970714F420E007C020E0C601079680171E
:103A400091070CF021E00C5E1F4F0C151D050CF4C6
:103A500020E06D5F7F4F6E157F0574F0222361F0CB
:103A600080E090E0A0E0B0EC8093B7049093B804BD
:103A7000A093B904B093BA04DE015696E4EAF3E0E9
:103A800085E101900D928150E1F7EA8CFB8C0C8D61
:103A90001D8D6E897F89888D998DDE011196E6E0F6
:103AA000F5E025E101900D922150E1F70E942432CA
:103AB0006B01C801B7010E9424327B0169817A81C0
:103AC0008B819C810E9424328B016D817E818F814C
:103AD00098850E942432C7010B968617970714F425
:103AE00020E007C020E0C6010796801791070CF080
:103AF00021E00C5E1F4F0C151D050CF420E06D5FDE
:103B00007F4F6E157F0574F0222361F080E090E016
:103B1000A0E0B0EC8093B7049093B804A093B904EC
:103B2000B093BA04DE011196ECE5F2E085E1019074
:103B30000D928150E1F7ED80FE800F81188569813B
:103B40007A818B819C81DE015696E1EFF5E025E1DB
:103B500001900D922150E1F70E9424326B01C801BF
:103B6000B7010E9424327B016E897F89888D998DEF
:103B70000E9424328B016A8D7B8D8C8D9D8D0E94DD
:103B80002432C70107968617970714F420E007C070
:103B900020E0C6010596801791070CF021E00C5E2D
:103BA0001F4F0C151D050CF420E06D5F7F4F6E1547
:103BB0007F05C4F02223B1F060915C0270915D0238
:103BC00080915E0290915F0220E030E040E050E49E
:103BD0000E94543160935C0270935D0280935E0298
:103BE00090935F02DE015696ECE5F2E085E10190EC
:103BF0000D928150E1F7EA8CFB8C0C8D1D8D6E8946
:103C00007F89888D998DDE011196ECEFF2E025E138
:103C100001900D922150E1F70E9424326B01C801FE
:103C2000B7010E9424327B0169817A818B819C815A
:103C30000E9424328B016D817E818F8198850E9444
:103C40002432C70107968617970714F420E007C0AF
:103C500020E0C6010596801791070CF021E00C5E6C
:103C60001F4F0C151D050CF420E06D5F7F4F6E1586
:103C70007F05C4F02223B1F060915C0270915D0277
:103C800080915E0290915F0220E030E040E050E4DD
:103C90000E94543160935C0270935D0280935E02D7
:103CA00090935F02DE011196ECE5F2E085E1019070
:103CB0000D928150E1F7ED80FE800F8118856981BA
:103CC0007A818B819C81DE015696E6E0F5E025E164
:103CD00001900D922150E1F70E9424326B01C8013E
:103CE000B7010E9424327B016E897F89888D998D6E
:103CF0000E9424328B016A8D7B8D8C8D9D8D0E945C
:103D00002432C70107968617970714F420E007C0EE
:103D100020E0C6010596801791070CF021E00C5EAB
:103D20001F4F0C151D050CF420E06D5F7F4F6E15C5
:103D30007F05C4F02223B1F060915C0270915D02B6
:103D400080915E0290915F0220E030E040E050E41C
:103D50000E94543160935C0270935D0280935E0216
:103D600090935F02DE015696E4EAF3E085E101906C
:103D70000D928150E1F7EA8CFB8C0C8D1D8D6E89C4
:103D80007F89888D998DDE011196E7ECF4E025E1BD
:103D900001900D922150E1F70E9424326B01C8017D
:103DA000B7010E9424327B0169817A818B819C81D9
:103DB0000E9424328B016D817E818F8198850E94C3
:103DC0002432C7010B968617970714F420E007C02A
:103DD00020E0C6010796801791070CF021E0095FEB
:103DE0001F4F0C151D050CF420E06D5F7F4F6E1505
:103DF0007F052CF0222319F081E08093B201DE01CF
:103E00001196E4EAF3E085E101900D928150E1F72B
:103E1000ED80FE800F81188569817A818B819C817C
:103E2000DE015696ECE5F2E025E101900D9221507D
:103E3000E1F70E9424326B01C801B7010E942432CD
:103E40007B016E897F89888D998D0E9424328B0138
:103E50006A8D7B8D8C8D9D8D0E942432C7010B96BF
:103E60008617970714F420E007C020E0C6010796E4
:103E7000801791070CF021E0095F1F4F0C151D05FD
:103E80000CF420E06D5F7F4F6E157F051CF0222340
:103E900009F02BC1DE015696E4EAF3E085E10190DA
:103EA0000D928150E1F7EA8CFB8C0C8D1D8D6E8993
:103EB0007F89888D998DDE011196EDEBF1E025E18A
:103EC00001900D922150E1F70E9424326B01C8014C
:103ED000B7010E9424327B0169817A818B819C81A8
:103EE0000E9424328B016D817E818F8198850E9492
:103EF0002432C7010B968617970714F420E007C0F9
:103F000020E0C6010796801791070CF021E0095FB9
:103F10001F4F0C151D050CF420E06D5F7F4F6E15D3
:103F20007F051CF0222309F0E0C0DE011196E4EACF
:103F3000F3E085E101900D928150E1F7ED80FE8084
:103F40000F81188569817A818B819C81DE0156966B
:103F5000E0E3F5E025E101900D922150E1F70E94A8
:103F600024326B01C801B7010E9424327B016E89A3
:103F70007F89888D998D0E9424328B016A8D7B8D7B
:103F80008C8D9D8D0E942432C7010B968617970752
:103F900014F420E007C020E0C601079680179107BF
:103FA0000CF021E0095F1F4F0C151D050CF420E0FB
:103FB0006D5F7F4F6E157F051CF0222309F095C0C1
:103FC000DE015696E4EAF3E085E101900D9281501E
:103FD000E1F7EA8CFB8C0C8D1D8D6E897F89888DB5
:103FE000998DDE011196EBE3F3E025E101900D924E
:103FF0002150E1F70E9424326B01C801B7010E94F1
:1040000024327B0169817A818B819C810E942432D8
:104010008B016D817E818F8198850E942432C7013A
:104020000B968617970714F420E007C020E0C6011E
:104030000796801791070CF021E0095F1F4F0C15C0
:104040001D050CF420E06D5F7F4F6E157F051CF0A1
:10405000222309F04AC0DE011196E4EAF3E085E18B
:1040600001900D928150E1F7ED80FE800F8118855F
:1040700069817A818B819C81DE015696E7EEF2E0C0
:1040800025E101900D922150E1F70E9424326B014D
:10409000C801B7010E9424327B016E897F89888D17
:1040A000998D0E9424328B016A8D7B8D8C8D9D8D24
:1040B0000E942432C7010B968617970714F420E05C
:1040C00007C020E0C6010796801791070CF021E099
:1040D000095F1F4F0C151D050CF420E06D5F7F4F2D
:1040E0006E157F05ECF02223D9F080916E0190913E
:1040F0006F01019790936F0180936E011092B2014E
:104100000E94742A0E94A4100E9403030E94782C2B
:104110008091B301882321F01092B3011092EE0434
:10412000DE015696E4EAF3E085E101900D928150BC
:10413000E1F7EA8CFB8C0C8D1D8D6E897F89888D53
:10414000998DDE011196E5E4F5E025E101900D92EF
:104150002150E1F70E9424326B01C801B7010E948F
:1041600024327B0169817A818B819C810E94243277
:104170008B016D817E818F8198850E942432C701D9
:104180000B968617970714F420E007C020E0C601BD
:104190000796801791070CF021E0005F1F4F0C1568
:1041A0001D050CF420E0615F7F4F6E157F0574F0F4
:1041B000222361F080E090E0A0E0B0EC8093B704AF
:1041C0009093B804A093B904B093BA048091B2015B
:1041D000882309F470C08091B601882309F06BC070
:1041E000DE011196E4EAF3E085E101900D92815041
:1041F000E1F7ED80FE800F81188569817A818B81DE
:104200009C81DE015696E5E4F5E025E101900D92F2
:104210002150E1F70E9424326B01C801B7010E94CE
:1042200024327B016E897F89888D998D0E9424328A
:104230008B016A8D7B8D8C8D9D8D0E942432C701F0
:104240000B968617970714F420E007C020E0C601FC
:104250000796801791070CF021E0005F1F4F0C15A7
:104260001D050CF420E0615F7F4F6E157F051CF18A
:10427000222309F181E08093B5018091B9019091E9
:10428000BA0101969093BA018093B9018091B70168
:104290009091B8018C599F4F9093B8018093B701CA
:1042A0001092B20102C00E9445088091B501882396
:1042B000D1F70E944F10AA960FB6F894DEBF0FBE3A
:1042C000CDBFCF91DF911F910F91FF90EF90DF90C5
:1042D000CF900895AF92BF92CF92DF92EF92FF926C
:1042E0000F931F9380E090E0A0E0B0E0809366031E
:1042F00090936703A0936803B09369038093B70416
:104300009093B804A093B904B093BA0489B1869588
:1043100080FF0CC080E090E0A0E0B0E48093B704A0
:104320009093B804A093B904B093BA041F9B0CC037
:1043300080E090E0A0E0B0EC8093B7049093B804E4
:10434000A093B904B093BA0483B1869580FF0CC0E2
:1043500080E090E0A0E0B0E4809366039093670370
:10436000A0936803B0936903489B0CC080E090E081
:10437000A0E0B0EC8093660390936703A09368037A
:10438000B09369030E94D8108091B9019091BA014D
:10439000009709F0A1C260915C0270915D0280916A
:1043A0005E0290915F022091660330916703409115
:1043B0006803509169030E94543160935C027093CA
:1043C0005D0280935E0290935F0260916002709143
:1043D000610280916202909163022091B704309152
:1043E000B8044091B9045091BA040E9454316093CA
:1043F00060027093610280936202909363020E9454
:10440000742A8CE592E00E94222D6091B205709191
:10441000B3058091B4059091B50520916603309164
:10442000670340916803509169030E94543160937F
:10443000B2057093B3058093B4059093B505609170
:10444000B6057091B7058091B8059091B905209196
:10445000B7043091B8044091B9045091BA040E9455
:1044600054316093B6057093B7058093B805909367
:10447000B90582EB95E00E94222D6091E8017091D0
:10448000E9018091EA019091EB012091660330915E
:10449000670340916803509169030E94543160930F
:1044A000E8017093E9018093EA019093EB01609138
:1044B000EC017091ED018091EE019091EF0120915E
:1044C000B7043091B8044091B9045091BA040E94E5
:1044D00054316093EC017093ED018093EE01909361
:1044E000EF0188EE91E00E94222D609111037091FE
:1044F000120380911303909114032091660330916D
:10450000670340916803509169030E94543160939E
:10451000110370931203809313039093140360911B
:104520001503709116038091170390911803209141
:10453000B7043091B8044091B9045091BA040E9474
:10454000543160931503709316038093170390936F
:10455000180381E193E00E94222D6091F104709193
:10456000F2048091F3049091F40420916603309159
:10457000670340916803509169030E94543160932E
:10458000F1047093F2048093F3049093F404609127
:10459000F5047091F6048091F7049091F80420914D
:1045A000B7043091B8044091B9045091BA040E9404
:1045B00054316093F5047093F6048093F70490935C
:1045C000F80481EF94E00E94222D6091C70470915D
:1045D000C8048091C9049091CA0420916603309167
:1045E000670340916803509169030E9454316093BE
:1045F000C7047093C8048093C9049093CA0460915F
:10460000CB047091CC048091CD049091CE04209184
:10461000B7043091B8044091B9045091BA040E9493
:1046200054316093CB047093CC048093CD04909369
:10463000CE0487EC94E00E94222D60911B057091BE
:104640001C0580911D0590911E05209166033091F7
:10465000670340916803509169030E94543160934D
:104660001B0570931C0580931D0590931E0560919A
:104670001F057091200580912105909122052091C0
:10468000B7043091B8044091B9045091BA040E9423
:10469000543160931F0570932005809321059093FA
:1046A00022058BE195E00E94222D609171027091AC
:1046B000720280917302909174022091660330918E
:1046C000670340916803509169030E9454316093DD
:1046D00071027093720280937302909374026091DE
:1046E0007502709176028091770290917802209104
:1046F000B7043091B8044091B9045091BA040E94B3
:104700005431609375027093760280937702909390
:10471000780281E792E00E94222D60918F037091D0
:1047200090038091910390919203209166033091C0
:10473000670340916803509169030E94543160936C
:104740008F037093900380939103909392036091F1
:104750009303709194038091950390919603209117
:10476000B7043091B8044091B9045091BA040E9442
:1047700054316093930370939403809395039093C3
:1047800096038FE893E00E94222D6091D2017091F0
:10479000D3018091D4019091D5012091660330918D
:1047A000670340916803509169030E9454316093FC
:1047B000D2017093D3018093D4019093D50160917D
:1047C000D6017091D7018091D8019091D9012091A3
:1047D000B7043091B8044091B9045091BA040E94D2
:1047E00054316093D6017093D7018093D801909390
:1047F000D90182ED91E00E94222D6091C705709150
:10480000C8058091C9059091CA0520916603309131
:10481000670340916803509169030E94543160938B
:10482000C7057093C8058093C9059093CA05609128
:10483000CB057091CC058091CD059091CE0520914E
:10484000B7043091B8044091B9045091BA040E9461
:1048500054316093CB057093CC058093CD05909334
:10486000CE0587EC95E00E94222D60914505709160
:104870004605809147059091480520916603309147
:10488000670340916803509169030E94543160931B
:1048900045057093460580934705909348056091C0
:1048A000490570914A0580914B0590914C052091E6
:1048B000B7043091B8044091B9045091BA040E94F1
:1048C00054316093490570934A0580934B0590934A
:1048D0004C0585E495E08CC4181619060CF090C4BC
:1048E0006091B2057091B3058091B4059091B505C2
:1048F00020916603309167034091680350916903EA
:104900000E9454316093B2057093B3058093B4054F
:104910009093B5056091B6057091B7058091B80583
:104920009091B9052091B7043091B8044091B90431
:104930005091BA040E9454316093B6057093B70544
:104940008093B8059093B9050E94742A82EB95E094
:104950000E94222D6091E8017091E9018091EA01A5
:104960009091EB01209166033091670340916803B9
:10497000509169030E9454316093E8017093E901FA
:104980008093EA019093EB016091EC017091ED014D
:104990008091EE019091EF012091B7043091B8041D
:1049A0004091B9045091BA040E9454316093EC01D3
:1049B0007093ED018093EE019093EF0188EE91E00A
:1049C0000E94222D609111037091120380911303B4
:1049D000909114032091660330916703409168031E
:1049E000509169030E945431609311037093120334
:1049F0008093130390931403609115037091160331
:104A000080911703909118032091B7043091B80456
:104A10004091B9045091BA040E9454316093150337
:104A200070931603809317039093180381E193E02A
:104A30000E94222D6091F1047091F2048091F304A0
:104A40009091F404209166033091670340916803CC
:104A5000509169030E9454316093F1047093F20401
:104A60008093F3049093F4046091F5047091F6043C
:104A70008091F7049091F8042091B7043091B80424
:104A80004091B9045091BA040E9454316093F504E6
:104A90007093F6048093F7049093F80481EF94E008
:104AA0000E94222DA0906603B0906703C090680317
:104AB000D090690360915C0270915D0280915E020A
:104AC00090915F02A60195010E94543160935C02AF
:104AD00070935D0280935E0290935F02E090B70452
:104AE000F090B8040091B9041091BA04609160028A
:104AF000709161028091620290916302A801970116
:104B00000E9454316093600270936102809362024C
:104B1000909363026091BD017091BE018091BF01CD
:104B20009091C001A60195010E9454316093BD018E
:104B30007093BE018093BF019093C0016091C10149
:104B40007091C2018091C3019091C401A8019701A5
:104B50000E9454316093C1017093C2018093C301DC
:104B60009093C401609130057091310580913205B8
:104B700090913305A60195010E9454316093300550
:104B8000709331058093320590933305609134051D
:104B9000709135058091360590913705A8019701F0
:104BA0000E94543160933405709335058093360527
:104BB0009093370560913B0370913C0380913D03D6
:104BC00090913E03A60195010E94543160933B03EE
:104BD00070933C0380933D0390933E0360913F03A9
:104BE000709140038091410390914203A801970185
:104BF0000E94543160933F037093400380934103BC
:104C0000909342036091E7027091E8028091E9027B
:104C10009091EA02A60195010E9454316093E70247
:104C20007093E8028093E9029093EA026091EB02AC
:104C30007091EC028091ED029091EE02A801970133
:104C40000E9454316093EB027093EC028093ED026A
:104C50009093EE028CE592E00E94222D8DEB91E084
:104C60000E94222D80E395E00E94222D8BE393E0A9
:104C70000E94222D87EE92E00E94222D6091C704AF
:104C80007091C8048091C9049091CA042091660370
:104C90003091670340916803509169030E94543139
:104CA0006093C7047093C8048093C9049093CA04A6
:104CB0006091CB047091CC048091CD049091CE048E
:104CC0002091B7043091B8044091B9045091BA04CE
:104CD0000E9454316093CB047093CC048093CD0434
:104CE0009093CE0487EC94E00E94222D6091DC0426
:104CF0007091DD048091DE049091DF0420916603C1
:104D00003091670340916803509169030E945431C8
:104D10006093DC047093DD048093DE049093DF04E1
:104D20006091E0047091E1048091E2049091E304C9
:104D30002091B7043091B8044091B9045091BA045D
:104D40000E9454316093E0047093E1048093E20484
:104D50009093E3048CED94E00E94222D6091450530
:104D60007091460580914705909148052091660312
:104D70003091670340916803509169030E94543158
:104D800060934505709346058093470590934805C9
:104D90006091490570914A0580914B0590914C05B1
:104DA0002091B7043091B8044091B9045091BA04ED
:104DB0000E9454316093490570934A0580934B05D6
:104DC00090934C0585E495E00E94222DA090660307
:104DD000B0906703C0906803D09069036091770634
:104DE000709178068091790690917A06A6019501D6
:104DF0000E94543160937706709378068093790609
:104E000090937A06E090B704F090B8040091B9044A
:104E10001091BA0460917B0670917C0680917D06AA
:104E200090917E06A80197010E94543160937B0601
:104E300070937C0680937D0690937E066091470276
:104E4000709148028091490290914A02A601950111
:104E50000E94543160934702709348028093490244
:104E600090934A0260914B0270914C0280914D02E6
:104E700090914E02A80197010E94543160934B0219
:104E800070934C0280934D0290934E0260910606FF
:104E9000709107068091080690910906A601950178
:104EA0000E945431609306067093070680930806AB
:104EB0009093090660910A0670910B0680910C068A
:104EC00090910D06A80197010E94543160930A0643
:104ED00070930B0680930C0690930D06609151031E
:104EE000709152038091530390915403A601950150
:104EF0000E94543160935103709352038093530383
:104F00009093540360915503709156038091570319
:104F100090915803A80197010E9454316093550362
:104F20007093560380935703909358036091320215
:104F3000709133028091340290913502A60195015F
:104F40000E94543160933202709333028093340292
:104F50009093350260913602709137028091380249
:104F600090913902A80197010E9454316093360252
:104F700070933702809338029093390287E796E066
:104F80000E94222D87E492E00E94222D86E096E086
:104F90000E94222D81E593E00E94222D82E392E07F
:104FA0000E94222DE0906603F09067030091680351
:104FB000109169036091DC057091DD058091DE053B
:104FC0009091DF05A80197010E9454316093DC05A0
:104FD0007093DD058093DE059093DF0560912603D5
:104FE000709127038091280390912903A8019701CC
:104FF0000E94543160932603709327038093280303
:105000009093290360918A0270918B0280918C02A7
:1050100090918D02A80197010E94543160938A02F9
:1050200070938B0280938C0290938D02E090B70472
:10503000F090B8040091B9041091BA046091E005B1
:105040007091E1058091E2059091E305A801970137
:105050000E9454316093E0057093E1058093E2056E
:105060009093E30560912A0370912B0380912C03A8
:1050700090912D03A80197010E94543160932A0357
:1050800070932B0380932C0390932D0360918E02D9
:1050900070918F028091900290919102A8019701E6
:1050A0000E94543160938E0270938F02809390021D
:1050B000909391028CED95E00E94222D86E293E080
:1050C0000E94222D8AE892E00E94222DE090660341
:1050D000F090670300916803109169036091F105F6
:1050E0007091F2058091F3059091F405A801970164
:1050F0000E9454316093F1057093F2058093F3059B
:105100009093F4056091FC027091FD028091FE0283
:105110009091FF02A80197010E9454316093FC0214
:105120007093FD028093FE029093FF02609106054A
:10513000709107058091080590910905A8019701D4
:105140000E9454316093060570930705809308050B
:1051500090930905E090B704F090B8040091B90469
:105160001091BA046091F5057091F6058091F705EC
:105170009091F805A80197010E9454316093F505BC
:105180007093F6058093F7059093F80560910003FE
:10519000709101038091020390910303A80197018C
:1051A0000E945431609300037093010380930203C3
:1051B0009093030360910A0570910B0580910C0593
:1051C00090910D05A80197010E94543160930A0542
:1051D00070930B0580930C0590930D0581EF95E07E
:1051E0000E94222D8CEF92E00E94222D86E095E015
:1051F0000E94222D84EA93E00E94222D0E94782CA6
:105200008091B201882361F16091A4037091A5039C
:105210008091A6039091A70320E030E040E151E4A3
:105220000E9453316093C7047093C8048093C904EB
:105230009093CA046091A8037091A9038091AA0376
:105240009091AB0320E030E040EC50E40E945431F8
:105250006093CB047093CC048093CD049093CE04E0
:105260008091B301882361F16091A4037091A5033B
:105270008091A6039091A70320E030E040E151E443
:105280000E9453316093DC047093DD048093DE044C
:105290009093DF046091A8037091A9038091AA0301
:1052A0009091AB0320E030E040EC50E40E94543198
:1052B0006093E0047093E1048093E2049093E3042C
:1052C0001F910F91FF90EF90DF90CF90BF90AF9024
:1052D00008950E94742A84E160E04EE551E021E0E7
:1052E0000E94582C81E068E049E351E021E00E94EF
:1052F000582C4091B7015091B80183E268E021E059
:105300000E940A0881E060E140E451E021E00E944F
:10531000582C4091B9015091BA0183E260E121E03B
:105320000E940A0880E06DE00E948B2C0E94782C7D
:105330008FB182958695877080FD07C08FB1829569
:1053400086958695837080FF23C00E94742A88EE1C
:1053500093E028EC30E0F9013197F1F70197D9F7A4
:105360001092B201109268010E94E80783E090E079
:1053700090936F0180936E011092B8011092B70163
:105380001092BA011092B9010E94A4100E94782CC8
:105390000895AF92BF92CF92DF92EF92FF920F9358
:1053A0001F9380916E0190916F01892B19F481E018
:1053B0008093B4018091B4018823D9F00E946929B7
:1053C00018C080E06CE00E948B2C7D9902C07E9B0F
:1053D00012C00E94742A88EE93E0F8013197F1F729
:1053E0000197D9F71092B4010E94A90710926801A1
:1053F00002C008EC10E080916801882311F78091C9
:10540000B401882329F05BC00E9477080E94742AA7
:105410001899FACF0E94742AA0905C02B0905D02A5
:10542000C0905E02D0905F02C601B50120E030E07E
:1054300040EA50EC0E940733181684F5E0906002B1
:10544000F09061020091620210916302C801B701FD
:1054500020E030E040EE50EC0E9407331816F4F4E0
:10546000C601B50120E030E04AE153E40E94B831C2
:105470008823A4F4C801B70120E030E048EC52E4EE
:105480000E94B831882354F40E94C6060E94E305A6
:105490000E9400050E941D040E943A038091B901F8
:1054A0009091BA01892B19F40E94030302C00E9453
:1054B000A2020E946A210E94D8100E94782C1F919B
:1054C0000F91FF90EF90DF90CF90BF90AF90089535
:1054D000CF93DF930E94B710C0E2DEE40E94C92997
:1054E000CE010197F1F7FACFECE8F6E0119288E0EF
:1054F000E438F807D9F70895843580F5603370F5FE
:10550000262F269526952695677090E0442399F0DE
:10551000E4E52E9FF0011124E80FF91FE457F94F3D
:1055200081E090E002C0880F991F6A95E2F7208120
:10553000282B20830895E4E52E9FF0011124E80F25
:10554000F91FE457F94F81E090E002C0880F991FDE
:105550006A95E2F7809520812823208308952F9271
:105560003F924F925F926F927F928F929F92AF92F3
:10557000BF92CF92DF92EF92FF920F931F93DF9330
:10558000CF93CDB7DEB72E970FB6F894DEBF0FBE20
:10559000CDBFE82ED62E142FF22E0C878417F9F4E7
:1055A000862E9924A22EBB240EC08E2D682D4C85EC
:1055B0000E947C2ADF1420F40894811C911C03C0F3
:1055C000089481089108DF1428F4A814B9040CF495
:1055D00001C1EBCF8A149B040CF4FCC0E6CF621728
:1055E000F9F4882E9924A42EBB240EC0882D6D2D8D
:1055F0004C850E947C2AE11620F40894811C911CA1
:1056000003C0089481089108E11628F4A814B9048D
:105610000CF4E0C0EBCF8A149B040CF4DBC0E6CFA3
:10562000481720F41E2DE42EF62ED22E812F90E066
:105630009A838983AE2CBB24BC016A197B09882715
:1056400077FD8095982F0E9457326F8378878987DE
:105650009A872F2C33244D2C5524B10164197509D8
:10566000882777FD8095982F0E9457323B014C0187
:105670002F81388549855A850E94BC316B837C8394
:105680008D839E8320E030E040E050E00E940733AD
:1056900087FF0DC0C401B30190582F81388549851B
:1056A0005A850E94BC316B837C838D839E830F2E31
:1056B000F0E0CF2EF0E0DF2EF0E0EF2EF0E0FF2E56
:1056C000F02D70C0AB868A2D642D4C850E947C2AFB
:1056D000C701B6012B813C814D815E810E9454310E
:1056E00031C08B85642D4C850E947C2A1E861D86C8
:1056F000C401B30120E030E040E050E00E940733F5
:10570000181624F4E1E0F0E0FE87ED8700E010E0F9
:10571000C401B30120E030E040E050E00E94B83125
:10572000882314F401E010E08D859E85801B910B89
:10573000480E591EC701B60120E030E040E85FE3A3
:105740000E9453316B017C0120E030E040E05FE3D8
:105750000E94073388239CF0C401B30120E030E0AD
:1057600040E050E00E94073318162CF4241435044E
:105770000CF0B7CF04C0421453040CF0B2CF6F81C9
:10578000788589859A8520E030E040E050E00E94ED
:105790000733181624F40894A11CB11C03C0089404
:1057A000A108B1086F81788589859A8520E030E06D
:1057B00040E050E00E940733181634F4E981FA8182
:1057C000EA15FB053CF07ECF89819A81A816B906BF
:1057D0000CF078CF2E960FB6F894DEBF0FBECDBF7B
:1057E000CF91DF911F910F91FF90EF90DF90CF90BD
:1057F000BF90AF909F908F907F906F905F904F90F1
:105800003F902F9008957F928F929F92AF92BF9278
:10581000CF92DF92EF92FF920F931F93CF93DF937C
:10582000D82E762EC22E85E0489FA00111248A0131
:10583000045F1F4F91E0892E912C81E1A82E80E01A
:10584000B82EA40EB51EF8018491CC2009F48095E1
:10585000C0E0D0E0E82EFF24672D6C0FA4010C2ED1
:1058600002C0440F551F0A94E2F74E215F210C2E0F
:1058700002C0559547950A94E2F78D2D0E947C2A27
:105880002196C830D10541F70F5F1F4FD3940A15F9
:105890001B05C9F6DF91CF911F910F91FF90EF90FB
:1058A000DF90CF90BF90AF909F908F907F900895A2
:1058B000EF92FF920F931F93CF93DF93E62EEA01AF
:1058C000F22E082F10E007C0802F6E2D2F2D0E9482
:1058D000032C0B5F1F5FFE01E10FF11D408144238C
:1058E00099F7DF91CF911F910F91FF90EF9008955D
:1058F000CF93DF9380E060E00E94ED2CCCE8D6E00F
:1059000081E069910E948B2C88E0C438D807C1F7E8
:10591000DF91CF91089595B18295880F807E9F7D0C
:10592000982B95B95F9827E030E070E08F98CB0115
:10593000022E02C0959587950A94E2F780FF02C077
:105940002E9A01C02E988F9A215030408FEF2F3F12
:10595000380761F75F9A08951F93182F579A249A72
:10596000259A269A879A2C985F9A2C9A80E061E271
:105970000E948B2C106880E0612F0E948B2C80E0AD
:1059800064E00E948B2C80E063E10E948B2C80E01D
:105990006CE00E948B2C80E060E20E948B2C80E007
:1059A0006CE00E948B2C80E060E40E948B2C80E0F5
:1059B00060E80E948B2C1F910895CF93DF93C0E085
:1059C000D0E081E060E00E948B2C219681E0C83F0E
:1059D000D807B9F7DF91CF9108951F93182F60640E
:1059E00080E00E948B2C106880E0612F0E948B2C3D
:1059F0001F910895AF92BF92CF92EF920F931F9392
:105A0000FC0140835183628373830483158326835F
:105A10003783E08AC18AB48AA38A81E0828B80E0DE
:105A200090E0A0E0B0E080879187A287B387848769
:105A30009587A687B7871F910F91EF90CF90BF9062
:105A4000AF9008952F923F925F926F927F928F92C4
:105A50009F92AF92BF92CF92DF92EF92FF920F93FD
:105A60001F93CF93DF938C01DC0152968C91529758
:105A7000882309F47FC06D917D918D919C910E9446
:105A80006E330E9424323B01F80124813581468126
:105A90005781643571050CF06DC0D80150968C911A
:105AA000C82FD0E0CE01860D971D181619060CF0F0
:105AB00061C0CA01B9010E946E330E9424324B01B9
:105AC000603371050CF056C0F80181899401280FEC
:105AD000311D121613060CF04DC057E0A52EB12C47
